:020000040800F2
:10000000000002200D3100085D3100085D3100085C
:100010005D3100085D3100085D310008000000001E
:100020000000000000000000000000003117000880
:100030005D31000800000000C11700082518000805
:100040005D3100085D3100085D3100085D31000858
:100050005D3100085D3100085D3100085D31000848
:100060005D3100085D3100085D3100085D31000838
:100070005D3100085D3100085D3100085D31000828
:100080005D3100085D3100085D3100085D31000818
:100090005D3100085D3100085D3100085D31000808
:1000A0005D3100085D3100085D3100085D310008F8
:1000B0005D3100085D3100085D3100085D310008E8
:1000C0005D3100085D3100085D3100085D310008D8
:1000D0005D3100085D310008213000085D31000805
:1000E0005D3100085D3100085D3100085D310008B8
:1000F0005D3100085D3100085D3100085D310008A8
:100100005D3100085D3100085D3100085D31000897
:100110005D3100085D31000875300008813000084D
:100120005D3100085D3100085D3100085D31000877
:100130005D3100085D3100085D3100085D31000867
:100140005D3100085D3100085D3100085D31000857
:100150005D3100085D3100085D3100085D31000847
:100160005D3100085D3100085D3100085D31000837
:100170005D3100085D3100085D31000800000000BD
:080180005D3100085D3100084B
:1001900010B5054C237833B9044B13B10448AFF3C1
:1001A00000800123237010BDF40000200000000037
:1001B0002841000808B5034B1BB103490348AFF3BE
:1001C000008008BD00000000F80000202841000861
:1001D00001F0FF01102A2BDB10F0070F08D010F8F8
:1001E000013B013A8B422DD010F0070F42B3F6D1FC
:1001F000F0B441EA012141EA014122F007047FF015
:1002000000070023F0E80256083C85EA010586EA6B
:10021000010685FA47F5A3FA87F586FA47F6A5FAA7
:1002200087F68EB9EED1F0BC01F0FF0102F00702B3
:1002300032B110F8013B013A83EA010313B1F8D15E
:100240000020704701387047002D06BF354603383F
:10025000073815F0010F07D1013015F4807F02BF78
:10026000013015F4C03F0130F0BC0138704700BFC9
:1002700053B94AB9002908BF00281CBF4FF0FF310D
:100280004FF0FF3000F07AB9ADF1080C6DE904CE03
:1002900000F006F8DDF804E0DDE9022304B0704761
:1002A0002DE9F0478C460D460446089E002B51D19F
:1002B0008A4217466DD9B2FA82FEBEF1000F0BD00A
:1002C000CEF1200C01FA0EF520FA0CFC02FA0EF722
:1002D0004CEA050C00FA0EF44FEA174A250CBCFB59
:1002E000FAF81FFA87F90AFB18CC45EA0C4508FB17
:1002F00009F3AB420AD9ED1908F1FF3280F02381EE
:10030000AB4240F22081A8F102083D44ED1AA4B2AC
:10031000B5FBFAF00AFB105544EA054400FB09F965
:10032000A14509D9E41900F1FF3380F00A81A14504
:1003300040F2078102383C44A4EB090440EA08403B
:100340000021002E61D024FA0EF400233460736083
:10035000BDE8F0878B4207D9002E54D0002186E8F3
:1003600021000846BDE8F087B3FA83F1002940F088
:100370008E80AB4202D3824200F2FA80841A65EB8F
:1003800003050120AC46002E3FD086E81010BDE8E2
:10039000F08712B90127B7FBF2F7B7FA87FEBEF173
:1003A000000F34D1EB1B3A0C1FFA87FC0121B3FB81
:1003B000F2F8250C02FB183345EA03450CFB08F361
:1003C000AB4207D9ED1908F1FF3002D2AB4200F27F
:1003D000D1808046ED1AA3B2B5FBF2F002FB1055B6
:1003E00043EA05440CFB00FCA44507D9E41900F1DD
:1003F000FF3302D2A44500F2B8801846A4EB0C04E7
:1004000040EA08409DE731463046BDE8F087CEF12E
:10041000200405FA0EF307FA0EF720FA04F83A0C56
:1004200025FA04F448EA0308B4FBF2F14FEA184550
:1004300002FB11441FFA87FC45EA044501FB0CF35B
:10044000AB4200FA0EF409D9ED1901F1FF3080F04A
:100450008A80AB4240F2878002393D44EB1A1FFA92
:1004600088F5B3FBF2F002FB103345EA034500FBCD
:100470000CF3AB4207D9ED1900F1FF386FD2AB4254
:100480006DD902383D44EB1A40EA01418FE7C1F1D2
:10049000200722FA07F88B4005FA01F448EA030323
:1004A00020FA07FE4FEA134CFD404EEA040EB5FB5E
:1004B000FCF94FEA1E440CFB19551FFA83F844EA75
:1004C000054509FB08F4AC4202FA01F200FA01FA10
:1004D00008D9ED1809F1FF3043D2AC4241D9A9F156
:1004E00002091D442D1B1FFA8EFEB5FBFCF00CFB10
:1004F00010554EEA054400FB08F8A04507D9E4185A
:1005000000F1FF3529D2A04527D902381C4440EA22
:100510000940A4EB0804A0FB02894C45C6464D46A1
:1005200015D312D056B1BAEB0E0364EB050404FAEE
:1005300007F7CB401F43CC40376074600021BDE813
:10054000F0871846F8E69046E0E6C245EAD2B8EBF6
:10055000020E69EB03050138E4E72846D7E7404679
:1005600091E78146BEE7014678E702383C4445E71B
:10057000084608E7A8F102083D442BE7704700BF92
:1005800008B50B4B1A6842F400721A601A6842F4FC
:1005900080621A601A6842F480721A60032000F0C8
:1005A0001BF8002002F0FEFC02F07CFC002008BDDD
:1005B000003C0240034A044B11681B780B44136053
:1005C000704700BFCC3E002000000020014B18689F
:1005D000704700BFCC3E0020074AD36823F4E06395
:1005E0001B041B0C43F0BF63000243F4003300F410
:1005F000E0600343D360704700ED00E0174B30B577
:10060000DC68C4F30224C4F10703251D042B28BFB2
:100610000423062D4FF0010505FA03F303F1FF3320
:100620008CBF033C00241940A14005FA04F4013CAE
:100630002240002842EA01024FEA0212AFBF00F155
:10064000604000F00F00064BD2B2A5BF00F561403C
:10065000D2B21A5480F8002330BD00BF00ED00E094
:1006600014ED00E04209012300F01F0003FA00F03E
:10067000014B43F82200704700E100E090F835306C
:10068000022B03D0802343650120704702680523B5
:1006900080F83530136823F00103136000207047A1
:1006A0002DE9F04F85B00B68DFF8AC81684ADFF8C0
:1006B000AC91019300234FF0010E019C0EFA03FE52
:1006C0000EEA0406B64540F0AE804C6824F01007F0
:1006D000022F16D14FEAD30A00EB8A0A03F0070B68
:1006E000DAF820504FEA8B0B4FF00F0C0CFA0BFC92
:1006F00025EA0C0C0D6905FA0BF545EA0C05CAF85C
:1007000020504FEA430A0325D0F800B005FA0AF555
:10071000ED4304F0030C0BEA050B0CFA0AFC013F55
:100720004CEA0B0C012FC0F800C011D8876807EA0B
:10073000050BCF6807FA0AFC4CEA0B07876047688D
:1007400027EA0E0EC4F300179F4047EA0E074760E2
:10075000C7683D408F6807FA0AF73D43C560E5006A
:1007600061D54FF0000BCDF80CB0D8F84470394D7E
:1007700047F48047C8F84470D8F8447007F48047BD
:100780000397039F23F0030707F1804707F59C3782
:1007900003F0030CD7F808A04FEA8C0C4FF00F0EB3
:1007A0000EFA0CFEA8422AEA0E0E43D005F580652B
:1007B000A84241D005F58065A8423FD005F5806587
:1007C000A8423DD005F58065A8423BD048453BD0C6
:1007D00005F50065A84239D005F58065A84214BF2B
:1007E0000825072505FA0CF545EA0E05BD601568D4
:1007F000F74314F4803F0CBF3D4035431560556806
:1008000014F4003F0CBF3D4035435560956814F427
:10081000801F0CBF3D4035439560D568A40254BF8E
:100820003D403543D5600133102B7FF444AF05B014
:10083000BDE8F08F5D46D5E70125D3E70225D1E776
:100840000325CFE70425CDE70525CBE70625C9E736
:10085000003C014000000240003802400014024009
:100860000AB1816170470904FBE74369594041615E
:10087000704700002DE9F341044618B9012002B089
:10088000BDE8F0810368DD0710D42368980758D4C9
:1008900023681A0700F19A8023685B0700F1B8808B
:1008A000A269002A40F019810020E8E7A64B9A6867
:1008B00002F00C02042A07D09A6802F00C02082AFF
:1008C0000AD15B68590207D59F4B1B689A03DCD598
:1008D0006368002BD9D1D1E763689B4DB3F5803FA6
:1008E00011D12B6843F480332B60FFF76FFE964DD8
:1008F00006462B689B03C8D4FFF768FE801B64285C
:10090000F7D90320BBE7B3F5A02F04D12B6843F43C
:1009100080232B60E5E72A6822F480322A602A6867
:1009200022F480222A60002BDFD1FFF74FFE06461B
:100930002B689F03A9D5FFF749FE801B6428F7D9D0
:10094000DFE7814B9A6812F00C0F07D09A6802F02B
:100950000C02082A11D15B685E020ED47A4B1A6829
:10096000950702D5E268012A88D11A68216922F028
:10097000F80242EAC1021A608AE7E268734BB2B138
:1009800001221A60FFF722FE6F4D06462B6898077A
:1009900007D52B68226923F0F80343EAC2032B60D2
:1009A00076E7FFF713FE801B0228EFD9A9E71A604C
:1009B000FFF70CFE644D06462B6899077FF568AF7C
:1009C000FFF704FE801B0228F6D99AE76269604BA4
:1009D0007AB101221A60FFF7F9FD5B4D06466B6F95
:1009E0009F073FF559AFFFF7F1FD801B0228F6D9AD
:1009F00087E71A60FFF7EAFD534D06466B6F9807CD
:100A00007FF54AAFFFF7E2FD801B0228F6D978E7B1
:100A10004D4B1A6C12F0805228D101921A6C42F0A0
:100A200080521A641B6C03F080530193019B0126D2
:100A3000484D2B68D9051BD5A368434D012B27D101
:100A40002B6F43F001032B67FFF7C0FD3E4D0746B8
:100A500041F288382B6F9B0739D5002E3FF420AF29
:100A6000394A136C23F08053136419E70026DFE73B
:100A70002B6843F480732B60FFF7A8FD07462B68B3
:100A8000DA05D9D4FFF7A2FDC01B0228F7D938E751
:100A9000052B04D12B6F43F004032B67D0E72A6F9B
:100AA00022F001022A672A6F22F004022A67002B33
:100AB000CAD1FFF78BFD41F2883807462B6F9807A4
:100AC000CBD5FFF783FDC01B4045F7D919E7FFF7EA
:100AD0007DFDC01B4045BDD913E71B4DAB6803F03E
:100AE0000C03082B3FF4CAAE1B4E0023022A3360CE
:100AF00034D1FFF76BFD07462B6899011ED4226A9B
:100B0000E3691343626A43EA8213E26A43EA0263D7
:100B1000A26A0D4C5208013A43EA02436B6001237A
:100B20003360FFF753FD054623689A013FF5BCAEDD
:100B3000FFF74CFD401B0228F6D9E2E6FFF746FD21
:100B4000C01B0228D8D9DCE600380240000047422A
:100B5000800E47420070004060004742FFF736FDBC
:100B600004462B689B017FF59FAEFFF72FFD001B0E
:100B70000228F6D9C5E600BF134908B58B6803F013
:100B80000C03042B03D0082B03D0104808BD1048D9
:100B900008BD4A684B68496813F4800314BF0C48C9
:100BA0000A48C1F3881118BF002302F03F02A1FBDD
:100BB0000001FFF75DFB044B5B68C3F301430133A6
:100BC0005B00B0FBF3F008BD003802400024F400E5
:100BD00000127A002DE9F0410D46044610B90120BB
:100BE000BDE8F081444B1A6802F00F028A4228D314
:100BF00021688F072DD4C80740D43F4B1A6802F0F4
:100C00000F02954266D3226851076CD4130707D5AB
:100C10003A4A2169936823F4604343EAC10393602D
:100C2000FFF7AAFF354B364A9B68C3F30313D35C27
:100C3000D840344B1860002002F0B4F90020BDE821
:100C4000F081CAB21A701B6803F00F039942C6D133
:100C5000CEE72A4B11F0040F1EBF9A6842F4E0520F
:100C60009A600E0742BF9A6842F460429A609A689E
:100C7000A06822F0F00202439A60BCE762681F4B52
:100C8000012A1DD11B6813F4003FA8D01B4EB36886
:100C900023F003031343B360FFF798FC41F2883855
:100CA0000746B368626803F00C03B3EB820FA4D06D
:100CB000FFF78CFCC01B4045F3D90320BDE8F08151
:100CC000911E01291B6802D813F0007FDDE713F0A5
:100CD000020FDAE7EAB21A701B6803F00F039D42B5
:100CE0007FF47DAF8FE70549E0688B6823F4E0531C
:100CF00003438B608AE700BF003C0240003802409B
:100D0000BD4400088C000020044B054A9B68C3F3D7
:100D10008223D35C034A1068D840704700380240F1
:100D2000CD4400088C000020044B054A9B68C3F3A7
:100D30004233D35C034A1068D84070470038024001
:100D4000CD4400088C0000200F2303600B4B9A68F1
:100D500002F0030242609A6802F0F00282609A6830
:100D600002F4E052C2609B68DB0803F4E0530361C5
:100D7000034B1B6803F00F030B6070470038024001
:100D8000003C02400368DA6842F00102DA601A6847
:100D900042F001021A60002070470368DA6822F00E
:100DA0000102DA60196A41F21112114208D1196A7E
:100DB00040F24442114202BF1A6822F001021A6056
:100DC00000207047704770477047704703681A6982
:100DD000910710B504460ED5DA6892070BD56FF06F
:100DE00002021A619B6901229B07027677D0FFF706
:100DF000EAFF0023237623681A69500710D5DA68C2
:100E000051070DD56FF004021A619B69022213F499
:100E1000407F2276204668D0FFF7D5FF0023237657
:100E200023681A6912070FD5DA6810070CD56FF01E
:100E300008021A61DB6904229907227620465AD0FB
:100E4000FFF7C1FF0023237623681A69D20610D565
:100E5000DA68D0060DD56FF010021A61DB6908223E
:100E600013F4407F227620464BD0FFF7ACFF0023DF
:100E7000237623681A69D10708D5DA68D20705D521
:100E80006FF001021A61204601F0AEFF23681A6973
:100E9000100608D5DA68110605D56FF080021A61D0
:100EA000204600F0D6F823681A69520608D5DA6899
:100EB000500605D56FF040021A612046FFF785FF06
:100EC00023681A69910622D5DA6892061FD56FF059
:100ED000200220461A61BDE8104000F0B9B8FFF7C3
:100EE00071FF2046FFF770FF83E7FFF76BFF204697
:100EF000FFF76AFF92E7FFF765FF2046FFF764FF01
:100F0000A0E7FFF75FFF2046FFF75EFFAFE710BDEA
:100F10002E4A0368904212D0B0F1804F0FD0A2F554
:100F20007C4290420BD002F58062904207D002F5DD
:100F30008062904203D002F5784290421DD14A6807
:100F400023F070031343214A904204D1CA6823F46A
:100F50004073134328E0B0F1804FF7D01C4A904211
:100F6000F4D002F580629042F0D002F580629042A7
:100F7000ECD002F578429042E8D0164A9042E5D093
:100F800002F580629042E1D002F580629042DDD0AD
:100F9000A2F598329042D9D002F580629042D5D025
:100FA00002F580629042D1D003608B68C3620B6807
:100FB0008362064B984206D003F58063984202D0C4
:100FC0000123436170470B690363F9E700000140A7
:100FD000000400400040014010B50446A0B190F864
:100FE000393003F0FF021BB980F8382001F07CFF94
:100FF000022384F839302068211DFFF789FF01237F
:1010000084F83930002010BD012010BD90F8383030
:10101000012B10B54FF0020318D080F83930036867
:101020000C685A68496822F070025A605A68224374
:101030005A609A6822F080029A609A680A439A601D
:10104000012380F83930002380F83830184610BD6D
:10105000704770470368DA6822F49072DA605A6960
:1010600022F001025A61202380F83A3070470000D4
:101070002DE9F0470668C2683369C16923F440531B
:1010800013433361044683680069F268034360696F
:1010900022F41642034322F00C020B431343F36085
:1010A0007369A26923F440731343B1F5004F736170
:1010B0007A4B7CD19E4203D003F580639E4244D19B
:1010C000FFF732FE192505FB00F360684FF0640955
:1010D0004000B3FBF0F3B3FBF9F34FEA0318FFF75B
:1010E00023FE636868435B00B0FBF3F7FFF71CFE69
:1010F000636868435B00B0FBF3F3B3FBF9F309FBF0
:101100001373DB003233B3FBF9F35B0003F4F877BE
:10111000FFF70AFE626868435200B0FBF2FAFFF77D
:1011200003FE636868435B00B0FBF3F3B3FBF9F3C2
:1011300009FB13A3DB003233B3FBF9F303F007031E
:1011400043443B44B360BDE8F087FFF7DDFD19255C
:1011500005FB00F360684FF064094000B3FBF0F357
:10116000B3FBF9F34FEA0318FFF7CEFD636868435A
:101170005B00B0FBF3F7FFF7C7FD636868435B00F4
:10118000B0FBF3F3B3FBF9F309FB1373DB0032336A
:10119000B3FBF9F35B0003F4F877FFF7B5FD626882
:1011A00068435200B0FBF2FAFFF7AEFDB9E79E428A
:1011B00002D03B4B9E4240D1FFF7B6FD6768192530
:1011C0004FF0640905FB00F3BF00B3FBF7F3B3FB7B
:1011D000F9F31F01FFF7A8FD636868439B00B0FBAC
:1011E000F3F8FFF7A1FD636868439B00B0FBF3F3DE
:1011F000B3FBF9F309FB13831B013233B3FBF9F3A0
:1012000003F0F008FFF790FD626868439200B0FBBE
:10121000F2FAFFF789FD636868439B00B0FBF3F3C4
:10122000B3FBF9F309FB13A31B013233B3FBF9F34F
:1012300003F00F0343EA080383E7FFF765FD6768E0
:1012400019254FF0640905FB00F3BF00B3FBF7F36A
:10125000B3FBF9F31F01FFF757FD636868439B0079
:10126000B0FBF3F8FFF750FD636868439B00B0FBE9
:10127000F3F3B3FBF9F309FB13831B013233B3FB25
:10128000F9F303F0F008FFF73FFD6268684392004E
:10129000B0FBF2FAFFF738FDBDE700BF00100140D8
:1012A00000140140F8B504460E4617461D46216855
:1012B0000B6836EA030301D10020F8BD6B1CF7D0A0
:1012C00095B92368DA6822F4D072DA605A6922F09C
:1012D00001025A61202384F8393084F83A3000231F
:1012E00084F838300320F8BDFFF770F9C01B854241
:1012F000DDD2E6E710B5044640B390F8393003F08C
:10130000FF021BB980F8382001F00CFE226824236C
:1013100084F83930D36823F40053D3602046FFF7B4
:10132000A7FE23681A6922F490421A615A6922F0D2
:101330002A025A61DA6842F40052DA60002020235F
:10134000E06384F8393084F83A3010BD012010BDD4
:101350002DE9F0411F4690F83930202B04460D4608
:1013600090464FD100294AD0002A48D090F8383012
:10137000012B47D0012380F838300023C363212399
:1013800080F83930FFF722F9A4F824800646A4F843
:101390002680E38C9BB26BB93B4632464021204607
:1013A000FFF780FFB0B9202384F8393084F8380083
:1013B000BDE8F081E38C013B9BB2E384A368B3F505
:1013C000805F32463B464FF0800120460ED1FFF74A
:1013D00069FF10B10320BDE8F0812B882268C3F3B8
:1013E00008035360236943B90235D2E7FFF75AFF78
:1013F0000028EFD123682A785A600135C9E7012017
:10140000BDE8F0810220BDE8F0817047704790F898
:101410003A30222B10B532D1836801690268B3F5E6
:10142000805F836A1FD15268C9B9C2F3080223F8EA
:10143000022B8362C48D013CA4B2C4856CB90368DD
:10144000DA6822F49072DA605A6922F001025A6175
:10145000202380F83A30FFF7D9FF002010BDD2B228
:1014600023F8012BE5E721B9591C526881621A70F3
:10147000E0E75268591C816202F07F02F7E7022020
:1014800010BD704703681A68D96870B5160704461E
:101490005D6907D196065AD58D0658D5BDE87040CE
:1014A000FFF7B5BF15F0010502D111F4907F4ED0C2
:1014B000D30705D5CE0542BFE36B43F00103E363D9
:1014C000500704D51DB1E36B43F00203E3639307B8
:1014D00004D51DB1E36B43F00403E363160704D5A1
:1014E0001DB1E36B43F00803E363E36B002B66D0AD
:1014F000950604D5880602D52046FFF788FF2368A5
:101500005D69E26B1107204602D415F040051AD040
:10151000FFF7A0FD23685A69520610D55A69606B1F
:1015200022F040025A6150B1254B0365FFF7A6F83F
:10153000002844D0606BBDE87040036D184720461A
:10154000FFF79FFF70BDFFF79CFFE56370BD1606B8
:1015500027D50D0625D594F83920212A2FD1A26848
:10156000B2F5805F226A17D11188C1F30801596072
:10157000216979B902322262E28C013A92B2E284A4
:10158000EAB9DA6822F08002DA60DA6842F04002F2
:10159000DA6070BD0132EEE7511C216212785A60A8
:1015A000EAE750060BD54A0609D5DA6822F0400270
:1015B000DA60202384F839302046FFF726FF70BD1B
:1015C000C515000808B5806B0023C385C384FFF7E9
:1015D00058FF08BD08B500F0D7FB002008BD30B5A6
:1015E000B0F90840028A0B4690E8220085B0842CAE
:1015F00014BF0334002403A801900094284600F08F
:10160000F3FA01280CBF0398002005B030BD08B5DF
:10161000002808BF012000F005FD002008BD00F1F2
:10162000080343604FF0FF32C36003610023826010
:101630000360704700230361704743684B609A68FA
:101640008A609A6851609960036808610133036099
:1016500070470A68531C30B50AD103695A684A605A
:1016600091608B605960036808610133036030BD8D
:1016700000F108035C682568AA42EFD32346F9E726
:101680004168826803698A6082685160596888424B
:1016900008BF5A600022026118680138186070475C
:1016A0000A4B1B68013308D04FF0500383F31188B5
:1016B000BFF36F8FBFF34F8FFEE74FF0500383F3FD
:1016C0001188BFF36F8FBFF34F8FFEE70400002038
:1016D00006480068006880F3088862B661B6BFF308
:1016E0004F8FBFF36F8F00DF00BF000008ED00E0F9
:1016F000DFF80C00016841F47001016070470000E0
:1017000088ED00E04FF0807340F8043C074B40F850
:101710000C3C21F001016FF0020340F8081C40F876
:10172000202C40F8243C4438704700BFA116000824
:10173000074B19680868B0E8F04F80F30988BFF3D9
:101740006F8F4FF0000080F311887047AFF3008077
:10175000303D00204FF0500383F31188BFF36F8FAB
:10176000BFF34F8F0A4A13680133012B13600DD169
:10177000084B1B6813F0FF0F08D04FF0500383F3A2
:101780001188BFF36F8FBFF34F8FFEE7704700BF25
:101790000400002004ED00E0084A136843B94FF04C
:1017A000500383F31188BFF36F8FBFF34F8FFEE7B2
:1017B000013B13600BB983F31188704704000020CC
:1017C000EFF30980BFF36F8F154B1A681EF0100FEF
:1017D00008BF20ED108A20E9F04F10604DF8043D5D
:1017E0004FF0500080F31188BFF34F8FBFF36F8F1E
:1017F00000F076FC4FF0000080F3118808BC1968F7
:101800000868B0E8F04F1EF0100F08BFB0EC108A67
:1018100080F30988BFF36F8F704700BFAFF300807C
:10182000303D002008B54FF0500383F31188BFF31B
:101830006F8FBFF34F8F00F0EBFA18B1034B4FF0EF
:1018400080521A60002383F3118808BD04ED00E084
:10185000064B4FF47A721B68B3FBF2F3044A013B68
:101860001360044B07221A60704700BF8C000020F1
:1018700014E000E010E000E0314B324A13B5196883
:10188000914208D14FF0500383F31188BFF36F8F5B
:10189000BFF34F8FFEE71A682B4B9A4208D14FF0E7
:1018A000500383F31188BFF36F8FBFF34F8FFEE7B1
:1018B000264B1A78D2B20192FF221A701B78244A62
:1018C000DBB28DF803309DF8033003F05003137042
:1018D000204B07221A6000219DF80300000602F148
:1018E000FF3423D401B11A601A68120202F4E062D4
:1018F0001A60019B154ADBB21370174B1A6842F449
:1019000070021A601A6842F070421A60FFF7A0FF76
:10191000124B00221A60FFF7EBFE114A136843F0E6
:1019200040431360FFF7D4FEFFF7BAFE9DF8032093
:101930005200D2B28DF8032001212246CCE700BF2D
:1019400000ED00E071C20F4170C20F4100E400E001
:10195000100100201401002020ED00E00400002010
:1019600034EF00E010B50F4B1A68824218D35C6860
:101970001919884201BF416818460919596044681D
:1019800001198A4207D1084909688A421FBF516874
:101990001268091941609842026018BF186010BDB2
:1019A0001346E1E7283D0020180100202DE9F04111
:1019B000044600F025FA3E493E4D0B680BBB3E4AFB
:1019C00056071FBFD01D20F0070002F570531B1AE9
:1019D00014BF02464FF470531344083B23F007032F
:1019E000364E0B6000207060326058601860981AA4
:1019F0001360334B50601860324B18604FF0004357
:101A00002B602F68274216D1002C41D004F1080327
:101A100058071CBF23F00703083363B1294A16682F
:101A2000B342904607D8254A15686868834204D8AF
:101A300009688D4207D100242AE02C68002CF7D0D9
:101A40002A462546F1E7296814681160C21A102A4F
:101A50000FD9E818410708D04FF0500383F31188DD
:101A6000BFF36F8FBFF34F8FFEE742606B60FFF7EE
:101A700079FF13496B680868F61A1F4386424FF0D6
:101A80000003C8F8006038BF0E6008346F602B6038
:101A900000F050FA630708D04FF0500383F3118829
:101AA000BFF36F8FBFF34F8FFEE72046BDE8F08195
:101AB000180100201C3D00201C010020283D0020B2
:101AC000243D0020203D002010B5044670B3184A84
:101AD00050F8043C1268134208D14FF0500383F3CE
:101AE0001188BFF36F8FBFF34F8FFEE750F8081CCC
:101AF00041B14FF0500383F31188BFF36F8FBFF3F1
:101B00004F8FFEE723EA020340F8043C00F078F927
:101B1000084A54F8043C1168A4F108000B4413600F
:101B2000FFF720FFBDE8104000F004BA10BD00BF71
:101B30001C3D0020203D0020064A13681968064B12
:101B400019B94FF0FF321A6070471268D268D26834
:101B50005268F8E7343D00200C3E0020F8B51B4BDE
:101B60001B4E1D680446306804300F46FFF788FDA1
:101B7000334640B93168174EC96A3268012088403F
:101B800022EA00023260621C07D137B1196812489C
:101B90000431BDE8F840FFF750BD2C441A68A54257
:101BA000546007D90D4A10681968BDE8F84004313F
:101BB000FFF74FBD0A4A106819680431FFF749FD65
:101BC000084B1A68944238BF1C60F8BD543E002090
:101BD000303D0020DC3D00202C3E0020383D002020
:101BE000343D00200C3E00202DE9F84F4FEA820AD8
:101BF000804650460F4699460B9EFFF7D7FE054696
:101C0000002800F096805420FFF7D0FE04460028FC
:101C100000F08C80AAF1040A056355447B1E25F070
:101C2000070A00F134020F37597802F8011B13F844
:101C3000011F09B1BB42F7D10A9D062D28BF062519
:101C40004FF0000B271DE5626564384684F843B009
:101C5000C4F848B0FFF7EEFCC5F1070504F1180021
:101C6000FFF7E8FCC4F84CB02461A561646284F815
:101C700050B04A4641465046FFF744FD206006B149
:101C80003460FFF767FD324B324E1A68DFF8F080A0
:101C900001321A603568002D4ED134601B68012B6B
:101CA0001DD108EB05001435FFF7B9FC8C2DF8D1D8
:101CB000DFF8D090284D4846FFF7B1FC2846FFF7E3
:101CC000AEFC2648FFF7ABFC2548FFF7A8FC2548EB
:101CD000FFF7A5FC244BC3F80090244B1D60244A59
:101CE00024491368086801331360E26A012505FA84
:101CF00002F3034314200B6000FB02803946FFF718
:101D00009CFCFFF749FD1C4B1B6863B13368DA6A22
:101D1000E36A9A4207D2194B4FF080521A60BFF320
:101D20004F8FBFF36F8F2846BDE8F88F2846FFF727
:101D3000CBFE4FF0FF35F6E70F4B1B68002BCED1E3
:101D40003368DA6AE36A9A4298BF3460C7E700BF33
:101D5000C83D0020303D0020F43D0020143E00200E
:101D6000403E00202C3E0020343D0020383D002025
:101D7000D83D0020DC3D0020283E002004ED00E09E
:101D80003C3D0020E03D002013B5174B019300249B
:101D900000942346802215491548FFF725FF0128A6
:101DA00014D14FF0500383F31188BFF36F8FBFF34B
:101DB0004F8F104B4FF0FF321A600F4B18600F4BD4
:101DC0001C6002B0BDE81040FFF756BD013008D1DD
:101DD0004FF0500383F31188BFF36F8FBFF34F8F22
:101DE000FEE702B010BD00BF083E00209E44000880
:101DF0006D2000080C3E0020283E0020543E0020AC
:101E0000024A136801331360704700BFD43D0020BD
:101E10002DE9F84F3C4B1B68002B53D13B4B1C6802
:101E200001341C60BCB93A4B1A68126842B14FF0D9
:101E3000500383F31188BFF36F8FBFF34F8FFEE71B
:101E4000344A1968106818601160334A1368013306
:101E50001360FFF771FE314D314F2B689C424FF0FC
:101E6000000B3ED3DFF8A880DFF8C490D8F800203C
:101E7000126872BB4FF0FF322A6032E006F1040AAA
:101E80005046FFF7FDFBB16A19B106F11800FFF7E4
:101E9000F7FBF06AD9F80030012202FA00F1194389
:101EA000204BC9F800104FF0140E51460EFB0030C5
:101EB000FFF7C3FB3868F16AC26A914228BF4FF04E
:101EC000010BD3E7184A1368013313604FF0000B7E
:101ED00011E0D8F80020D268D66871688C42CDD263
:101EE00029603A680F4BD16A14224A439A58022A51
:101EF00028BF4FF0010B0D4A1268002A18BF4FF09F
:101F0000010B5846BDE8F88FD43D0020543E002018
:101F1000343D0020383D0020103E00200C3E0020C3
:101F2000303D00203C3D0020D03D0020583E0020A8
:101F3000DC3D00202DE9F843314C236843B94FF0D4
:101F4000500383F31188BFF36F8FBFF34F8FFEE70A
:101F5000FFF700FC2368013B236024682CB10024B8
:101F6000FFF71AFC2046BDE8F883264B1B68002BC0
:101F7000F5D0DFF8A890244FDFF8A480D9F800301E
:101F8000E3B90CB1FFF7D8FD204D2C6844B1204EC9
:101F90000127FFF73DFF00B13760013CF9D12C600C
:101FA0001B4B1B68002BDAD01A4B4FF080521A6083
:101FB000BFF34F8FBFF36F8F0124D1E7D9F80C30F7
:101FC000DC68261D04F11800FFF75AFB3046FFF7C6
:101FD00057FBE26A3968012505FA02F314200B4326
:101FE00000FB028031463B60FFF727FB0A4BE26AA9
:101FF0001B68DB6A9A4224BF054B1D60BEE700BF29
:10200000D43D0020C83D0020DC3D0020D03D002014
:10201000583E002004ED00E0303D0020143E00203A
:102020003C3D002008B540B90E4B4FF080521A607D
:10203000BFF34F8FBFF36F8F08BD0B4B196841B1D2
:102040004FF0500383F31188BFF36F8FBFF34F8FAF
:10205000FEE7FFF7D5FEFFF781FDFFF76BFF0028D6
:10206000E2D008BD04ED00E0D43D002008B5174ED5
:10207000174C236863B9174B1B68012BF8D9164B13
:102080004FF080521A60BFF34F8FBFF36F8FEFE7AF
:10209000FFF7B6FE3568FFF74DFF002DE9D0FFF7DB
:1020A00059FBF368DD68281DFFF7EAFA0B4A13684D
:1020B000013B13602368013B2360FFF76DFB286B36
:1020C000FFF702FD2846FFF7FFFCD2E7403E002065
:1020D000CC3D00203C3D002004ED00E0C83D002048
:1020E000174B1A68174B10B512B101221A6010BDB8
:1020F0001A60154B1B68B3FA83F3DBB2C3F11F03FD
:10210000142212495A4388188C5844B94FF050038E
:1021100083F31188BFF36F8FBFF34F8FFEE74468DF
:102120000832646844600A44944204BF62684260B2
:10213000142202FB03135B68DA68054BD6E700BF85
:10214000D43D0020583E0020DC3D00203C3D0020D6
:10215000303D00200B88052B70B50D462ED1C3787D
:10216000027942EA0322531E9BB240F2CE718B42A7
:1021700024D80023467881782B80012303702B8894
:1021800012F0070F4FEAD20418BF01340133E4B252
:102190002B8044702B8841EA0621013301312B80CA
:1021A00089B20023023000F079FE18B1BDE870401A
:1021B00000F080B92A8814442C8070BD032070BDC3
:1021C0000B88052B13B51DD10379DBB9C478621ECA
:1021D000D2B2FD2A16D9427881788DF80530FF2CCD
:1021E00008BF012341EA02218DF8043001310123A7
:1021F0001A4689B201A800F051FE28B100F05AF940
:1022000002B010BD0320FBE7FAE70B88052B10B5E1
:102210000C4624D9C378027942EA032212F0070F50
:102220004FEAD20302F1FF3118BF0133B1F5F66F67
:10223000DBB214D24179994211D14378817841EAD5
:1022400003210131012389B2063000F027FE18B1C5
:10225000BDE8104000F02EB90522228010BD0320F9
:1022600010BD0B88052B70B50D462DD1C3780279B2
:1022700042EA0322531E9BB240F2CE718B4223D816
:102280000023467881782B80022303702B8812F07C
:10229000070F4FEAD20418BF01340133E4B22B8098
:1022A00044702B8841EA0621013301312B8089B229
:1022B000023000F0F5FD18B1BDE8704000F0FAB84A
:1022C0002A8814442C8070BD032070BD08B50B888B
:1022D000052B0FD14378817841EA03210131012395
:1022E0001A4689B2033000F0D7FD28B1BDE8084096
:1022F00000F0E0B8032008BD08BD0B88052B10B521
:102300000C461DD9C378027942EA0322531E772B6B
:1023100016D853004179DBB2994211D143788178C4
:1023200041EA03210131012389B2063000F0B4FDF6
:1023300018B1BDE8104000F0BDB80522228010BDE4
:10234000032010BDF8B50B88052B0C4624D102796B
:1023500095B26B1E7C2B1FD803260023477881780B
:10236000238006702688520001362680427022881B
:1023700041EA072101320131228089B22A46023026
:1023800000F08AFD18B1BDE8F84000F093B822884B
:1023900002EB45052580F8BD0320F8BD2DE9F84383
:1023A0000B88092B04460D463CD9C378077947EAC8
:1023B00003277B1E7C2B38D8C379027A42EA03229A
:1023C000531E782B31D8437AB3EB420F2DD143798A
:1023D000817990F80190867841EA03210131012347
:1023E00089B20A3000F058FD034608BB1722288046
:1023F00022702A884FEA470801322A8084F8018037
:102400002A8846EA0921013201312A8089B23A46F6
:10241000A01C00F041FD58B92B889844A5F8008015
:10242000BDE8F8830020BDE8F8830320BDE8F88309
:10243000BDE8F84300F03EB80B88052B70B50C469C
:1024400024D1C378027942EA0322531E7B2B1DD884
:102450000023467881782380042303702388550065
:10246000013323804570238841EA0621013301317D
:10247000238089B2023000F0E3FC18B1BDE870405F
:1024800000F018B822881544258070BD032070BD67
:1024900038B5064B1C880D462246054901340130EB
:1024A00000F0B2FE2C80002038BD00BF7C3E002032
:1024B0005C3E002007289ABF014B185C042070473F
:1024C0006841000838B50446084611461A46431EBE
:1024D000DBB2F62B27D8164B187024BB154B164DC4
:1024E0001D60164B164D1D60164B174D1D60174B8A
:1024F000174D1D60174B1C60174B184C1C60184B78
:10250000184C1C60184B194C1C609DF8103000F0E2
:1025100067F9044628B900F0B5F830B1144B012230
:102520001A70204638BD0224FBE70324F9E700BFF8
:10253000953E00208C3E00201D280008903E002083
:1025400039280008843E0020B5280008803E00207D
:102550004D280008883E0020D83E00203129000880
:10256000D03E0020C5290008D43E00204D2A000896
:102570000800002010B5064C2378012B05D1054B2F
:102580001B6898470020207010BD062010BD00BFBA
:10259000080000208C3E0020304BF7B51C78002C42
:1025A00059D10DF1070000F081F80128034601D050
:1025B000002405E09DF80720012A04D0022A17D044
:1025C000204603B0F0BD264D264B274A1B682749FD
:1025D0002846984704460028EAD1254A2B781278E5
:1025E0009A4201D0002BE3D1022000F053F8E7E734
:1025F0001E4D204E2868204F027833701F4B3A70D2
:1026000013F834104FEAC40E31B18A421FD173441B
:1026100015495B6898473070114B1B78002BC7D069
:102620003178114B59B101221A803A78286862F04A
:102630007F0202701A882868541C1C808154104A3A
:10264000296814681A880A4B1878A047B0E7013443
:10265000102CD5D1E0E70624B2E700BF0800002027
:102660009C3E0020803E00209E3E0020983E0020A0
:10267000953E00207E3E0020943E00200C0000206D
:10268000843E0020024B00221A700120704700BFD8
:10269000A13E0020034A01231370034A107018461C
:1026A000704700BFA13E0020A03E0020054A1378DD
:1026B0002BB1054B1B7803700023137001231846C0
:1026C000704700BFA13E0020A03E00200A4B58B139
:1026D0001868C26842F02002C2601A68D36841B12B
:1026E00043F08003D36070471868C26822F020026C
:1026F000F2E723F08003F5E7E83F00200120704770
:1027000007B502A90A2301F8010D01220448FEF7CA
:102710001FFEB0FA80F0400903B05DF804FB00BF73
:10272000E83F0020024B1B685B6803700120704784
:10273000E83F002073B5114D114B2B600646FEF7A4
:10274000E3FA104BB0FBF3F031230138EB600E4B92
:10275000686000242846AC601E80FEF73DFC58B936
:1027600020230190694628460093FEF74FFCB0FAFB
:1027700080F0400902B070BD2046FBE728400020F1
:102780000014004040420F00A43E0020034B0448C8
:102790001A88044B1A80FEF7F5BA00BFA43E002049
:1027A00028400020A23E00200148FEF7F6BA00BFF4
:1027B0002840002070B5FF23074D084E01441C46F9
:1027C000884202D143EA042070BD10F8012B5A4020
:1027D000AB5C6340B45CF3E77041000870420008F2
:1027E00010B50846144672B608222146FFF786FF48
:1027F00001280CD1B4F5964F97BF074823206400F9
:10280000B0FBF4F080B2FFF795FF012802D003205F
:1028100062B610BD0020FBE7A07F170008B572B6B6
:10282000044B002101201970FFF750FFFFF7AEFFA6
:1028300062B608BDA63E002008B572B60021084663
:10284000FFF744FFFFF7B0FF62B608BD2DE9F04186
:1028500080460E46174672B6114D2B889BB2FF2B51
:1028600005D9104B104A1148A12100F079FC2B88A2
:102870009BB2032B03D8052062B6BDE8F0812988FE
:102880000B4C89B22046FFF795FF0028F3D114F8CE
:10289000012B298888F80020033939803460EBE760
:1028A000AC3E0020B743000870430008DC4300083A
:1028B000E43E002038B5034672B618480578EDB2FC
:1028C000012D28D1164C481E2060164C258001F899
:1028D000013C238812FA83F292B22280218889B2C5
:1028E000FFF768FF238810499BB25A1C92B22280DE
:1028F000C2B2CA5423889BB25A1C92B2C0F30720BA
:102900002280C854094B002029461D70FFF7DEFEC7
:10291000002062B638BD0520FBE700BFA63E0020C0
:10292000A83E0020AE3E0020E43E0020A73E00204E
:102930001D4B1B7807B52BB11C4B1D4A1D48EB21C5
:1029400000F00EFC0DF10700FFF7ECFE1A4B1A78B1
:10295000032A22D8DFE802F01F02111F17490022C4
:102960000A800A8892B2501C80B2088014499DF8EF
:102970000700885402221A700DE0104A118889B2AB
:10298000FF290ED813889BB2591C89B211800C4ABA
:102990009DF80710D154FFF7F9FE002003B05DF851
:1029A00004FB0322E7E700BFA73E00200A4400081B
:1029B0007E430008DC430008A63E0020AC3E002019
:1029C000E43E0020F8B51A4B1878C0B2012806D0B2
:1029D000184B194A19484FF4937100F0C1FB184F76
:1029E0003B7803F0FF061BB1012E05D000251DE04A
:1029F0003146FFF76BFEF9E7124D2C88A4B264B1A3
:102A0000114C23681878FFF77BFE2368013323609D
:102A10002B88013B9BB22B80E8E70320FFF73AFEAF
:102A2000214605463046FFF751FE3C702846F8BD6A
:102A3000A63E0020884400088F430008DC430008BD
:102A4000A73E0020AE3E0020A83E002038B5144B23
:102A50001878C0B202281D460BD003281DD050B9EB
:102A6000FFF718FE0446FFF79FFE01232B70204658
:102A700038BD0120F4E71A7802F0FF04002AF2D0F2
:102A80001A78022A09D01B78032B06D0054B064A78
:102A900006484FF4B07100F063FB0024E3E700BF89
:102AA000A63E002025440008A1430008DC4300089E
:102AB0007FB5074D0FCD01AC0FC42B6823600021FB
:102AC00001A8FEF78CFD0120FEF7A1FDFBE700BF8A
:102AD0004041000830B595B03022002108A800F030
:102AE0009EFB0021142203A800F099FB00241D4B3B
:102AF00001941A6C42F080521A641B6C03F08053EC
:102B00000193019B184B02941A6842F480421A60A8
:102B10001B6803F480430293029B032308934FF442
:102B2000803309934FF480030F9304231093A82359
:102B30000225119308A8072313930E951295FDF70C
:102B400099FE0F2303934FF4A053069305214FF4EE
:102B5000805303A8049505940793FEF73BF815B03E
:102B600030BD00BF003802400070004080B58CB01E
:102B7000FDF706FDFFF7AEFF1422002107A8002491
:102B800000F04DFB8B4B01941A6B8B48DFF854829D
:102B900042F010021A631A6B02F010020192019ABD
:102BA00002941A6B42F004021A631A6B02F00402D8
:102BB0000292029A03941A6B42F080021A631A6B13
:102BC00002F080020392039A04941A6B42F001020D
:102BD0001A631A6B02F001020492049A05941A6BAC
:102BE00042F002021A631A6B02F002020592059A81
:102BF00006941A6B42F008021A631B6B03F0080379
:102C0000069322460821069BFDF72AFE0122114663
:102C10006A48FDF725FE22464FF210016848FDF78D
:102C20001FFE0126082507A9634807950896099401
:102C30000A94FDF735FD07A9604807960527089611
:102C400009940A94FDF72CFD079507A902255B4816
:102C500008950B9709940A94FDF722FD07A9594896
:102C600007964FF0060ACDF820800994FDF718FD6D
:102C7000102307A953480793089509940A94CDF89F
:102C80002CA0FDF70DFDE02307A94E4807930895FA
:102C90000B974FF0040909940A94FDF701FD07A969
:102CA0004948CDF81C9008940994FDF7F9FC4FF4BD
:102CB000806307A94448079308950B9709940A94E1
:102CC000FDF7EEFC4FF2100307A93D480793089665
:102CD00009940A94FDF7E4FC4FF4A45307A937487C
:102CE0000793089509940A94CDF82CA0FDF7D8FC19
:102CF0004FF4007307A93348079308940994FDF72C
:102D0000CFFC4FF4E053079307A90A232D480B93F8
:102D10000895202709940A94FDF7C2FC07A92848C2
:102D2000079708940994FDF7BBFC4FF410730793C1
:102D300007A912232448089309960A94CDF82C90E9
:102D4000FDF7AEFC07A91C480795CDF82080099433
:102D5000FDF7A6FC1D481E4A1E4D84604FF49643A5
:102D600080E80C000C234361C46004618461C46189
:102D7000FEF7C0FA184B194EAC60284685E81800DB
:102D8000EC6007940894FEF727F907A928460797EF
:102D90000894FEF73BF90FCE07AD0FC533682B60E3
:102DA000214607A8FEF71BFC0D4B1860FEF712FC2E
:102DB000FEE700BF00380240001002400008024059
:102DC000000C02400000024000040240E83F0020E6
:102DD00000440040284000200014004054410008F6
:102DE000E43F0020000012100268034B9A4201D118
:102DF000FDF7E0BB704700BF001000400F4B07B568
:102E00000B221A8016225A8021229A802C22DA80E4
:102E100037221A8142225A814D229A81002058225B
:102E2000DA8101214FF4964303220090FFF74AFB19
:102E3000FFF7A0FBFFF7B0FBFCE700BFB03E0020B0
:102E4000B1F57A7F10B514461BD38B18B3F57C7F90
:102E500017DC0F4B03EB4101A1F2D271023034B900
:102E60004FF480510B48FDF700FD204610BD31F8AE
:102E7000023F00F8013C1A0A013C00F8022CA4B2FF
:102E8000ECE74FF480410348FDF7EFFC012010BD53
:102E9000B03E0020000C0240012070470120704726
:102EA0000120704707B50F4B00220092596C41F486
:102EB00080415964596C01F480410091009901925C
:102EC000196C41F0805119641B6C03F0805301931D
:102ED0000F216FF00100019BFDF790FB03B05DF83F
:102EE00004FB00BF0038024007B50D4B02689A4250
:102EF00013D103F5093300220192196C41F020012E
:102F000019641B6C03F02003019337200521019BFA
:102F1000FDF774FB3720FDF7A5FB03B05DF804FB5C
:102F20000014004010B5044688B01422002103A804
:102F300000F075F92268194B9A422CD103F5FA3347
:102F4000002401941A6C164842F400321A641A6C78
:102F500002F400320192019A02941A6B42F00102CB
:102F60001A631B6B03F001030293029B0C23039370
:102F700002230493012305930323069303A9072344
:102F80000793FDF78DFB262022460521FDF736FB32
:102F90002620FDF767FB08B010BD00BF00440040CD
:102FA0000000024030B5014689B000223620FDF70E
:102FB00025FB3620FDF756FB0025154B02951A6CB4
:102FC000144C42F010021A641B6C03F010030293BD
:102FD00001A903A8029BFDF7B7FEFDF795FE0E4B76
:102FE000236040F2E733E36040000C4BB0FBF3F0AA
:102FF0000138606020462561A560FDF7EDFF20B92E
:103000002046FDF7BFFE09B030BD0120FBE700BF41
:1030100000380240644000200010004040420F0091
:1030200013B5114C23681968DA6888060ED5910625
:103030000CD50E4B1B6898470023019323681A6830
:1030400001925B680193019B02B010BD1A681206E1
:1030500006D5DB681B0603D5054B1B689847F3E7CD
:103060000148FEF70FFAEFE7E83F0020D83E0020C6
:10307000D03E00200148FDF7A9BE00BF64400020FB
:1030800008B50C4B1B681A69D1070ED5DA68D20750
:103090000BD56FF001021A61074A1388013B9BB2FE
:1030A000138013B9054B1B6898470248BDE80840D8
:1030B000FDF78CBE28400020A23E0020D43E002018
:1030C0000F49D1F8883043F47003C1F888300D4BB4
:1030D0001A68002042F001021A6098601A6822F013
:1030E000847222F480321A60074A5A601A6822F405
:1030F00080221A60D8604FF000638B60704700BF79
:1031000000ED00E00038024010300024DFF834D039
:10311000002103E00C4B5B58435004310B480C4B2F
:1031200042189A42F6D30B4A02E0002342F8043BCD
:10313000094B9A42F9D3FFF7C3FF00F041F8FFF7BC
:1031400015FD704700000220BC450008000000206B
:10315000F4000020F4000020A4400020FEE700005E
:103160001FB51C46094B1B680546D86852B1084B71
:1031700002928DE80A0022462B46064900F00EF81E
:1031800000F0ECFB044B1A46F2E700BF9000002071
:10319000D5440008E2440008104500080EB403B509
:1031A000014603AB054853F8042B0068019300F077
:1031B00069F802B05DF804EB03B07047900000209E
:1031C00070B50D4E0D4CA41BA4100025A54209D1CD
:1031D0000B4E0C4C00F0A8FFA41BA4100025A54228
:1031E00005D170BD56F8253098470135EEE756F801
:1031F000253098470135F2E7B4450008B44500088A
:10320000B4450008B845000810B5431E0A44914271
:1032100000D110BD11F8014B03F8014FF7E702444C
:103220000346934200D1704703F8011BF9E7936806
:10323000013B002B10B4936009DA9469A34202DBCE
:10324000CBB20A2B03D15DF8044B00F0C7BA136868
:10325000581C10601970C8B25DF8044B7047F8B57F
:1032600006460F461446D518AC4201D1002007E0AF
:103270003A4614F8011B3046FFF7D9FF431CF3D13F
:10328000F8BD00002DE9F04F9DB00C4617460393A2
:10329000064618B183690BB900F05AFC7C4B9C427E
:1032A00057D17468A38918075DD52369002B5AD0BC
:1032B0000023099320238DF8293030238DF82A30FC
:1032C0004FF0010BB846454615F8013B002B55D190
:1032D000B8EB070A0BD053463A4621463046FFF773
:1032E000BEFF013000F0C480099B5344099398F855
:1032F0000030002B00F0BC8000234FF0FF3204931D
:103300000793059206938DF853301A930522297876
:103310006048FCF75DFF05F10108049B002831D1EE
:10332000D90644BF20228DF853201A0744BF2B2210
:103330008DF853202A782A2A2CD0079A00210A20B7
:10334000A846013598F80030303B092B6DD971B390
:1033500026E0514B9C4201D1B468A3E74F4B9C42FD
:1033600008BFF4689EE72146304600F089FA00283D
:103370009ED04FF0FF301DB0BDE8F08F252BA7D0B9
:10338000A846A0E7434A801A0BFA00F018430490BD
:103390004546BBE7039A111D12680391002A01DB21
:1033A000079204E0524243F002030792049398F814
:1033B00000302E2B10D198F801302A2B08F1010192
:1033C00037D1039B1A1D1B680392002BB8BF4FF027
:1033D000FF3308F102080593314D98F800100322DD
:1033E0002846FCF7F5FE40B14023401B03FA00F0ED
:1033F000049B0343049308F1010898F8001029483E
:103400008DF82810062208F10107FCF7E1FE0028DC
:1034100034D0254B03BB039B073323F0070308334A
:103420000393099B4B4409934CE700FB02320121B3
:1034300086E70023059318460A258846013198F847
:103440000020303A092A03D9002BC5D00590C3E7E4
:1034500005FB00200123F0E703AB00932246134B4A
:1034600004A93046AFF30080B0F1FF3F8146D8D1C8
:10347000A3895B063FF57DAF09987CE703AB00931A
:1034800022460A4B04A9304600F088F8ECE700BF5A
:103490006C450008184500088C4500084C4500089C
:1034A0001E45000822450008000000005F320008A9
:1034B0002DE9F04791461F468A680B69DDF82080A8
:1034C0009342B8BF1346C9F8003091F8432006462E
:1034D0000C4612B10133C9F800302368990642BF87
:1034E000D9F800300233C9F80030256815F0060518
:1034F00007D104F1190AE368D9F800209B1A9D420C
:1035000029DB94F843302268003318BF0123920668
:103510002ED404F1430239463046C047013021D051
:103520002368E568D9F8002003F00603042B08BFE0
:10353000AD1AA36822690CBF25EAE5750025934200
:10354000C4BF9B1AED184FF000091A344D451BD12A
:103550000020BDE8F0870123524639463046C04777
:10356000013003D14FF0FF30BDE8F0870135C2E7ED
:10357000E1185A1C302081F84300224494F8451089
:1035800082F843100233C4E701232246394630460D
:10359000C0470130E6D009F10109D7E72DE9F04332
:1035A00017460A7E85B06E2A984606460C460C9B46
:1035B00001F1430E00F0BC801AD8632A2ED00AD83D
:1035C000002A00F0C880582A00F08A8004F14205E1
:1035D00084F842202AE0642A01D0692AF6D12168C1
:1035E0001A6811F0800F23D0111D1960136827E0AD
:1035F000732A00F0B48008D86F2A2AD0702AE5D147
:103600000A6842F020020A6003E0752A21D0782A75
:10361000DCD1782284F845206E4964E01A6801F113
:103620004205111D1960136884F842300123A3E09C
:1036300011F0400F02F104011960D7D0B2F9003047
:10364000002B03DA2D225B4284F8432062490A22D0
:1036500017E02068196810F0800F03D0081D18606B
:103660000B6806E010F0400F01F104001860F7D07D
:103670000B8859496F2A14BF0A220822002084F8B7
:1036800043006568A560002DC0F29C80206820F092
:1036900004002060002B3FD1002D40F0958075463E
:1036A000082A0BD12368DA0708D5236962689A4291
:1036B000DEBF302305F8013C05F1FF35AEEB050315
:1036C0002361CDF800803B4603AA21463046FFF730
:1036D000EFFE013055D14FF0FF3005B0BDE8F0836B
:1036E00081F845203C492268186812F0800F00F1EB
:1036F00004051D6001D0036802E05506FBD5038870
:10370000D00744BF42F0200222601BB9226822F099
:10371000200222601022B1E77546B3FBF2F002FBF3
:103720001033CB5C05F8013D03460028F5D1B7E71F
:1037300008681A68496910F0800F04D0101D1860DD
:103740001368196007E010F0400F02F104001860E0
:103750001368F6D01980002323617546B1E71A6813
:10376000111D19601568626800212846FCF730FDBC
:1037700008B1401B606063682361002384F8433014
:103780009FE723692A4639463046C0470130A2D018
:1037900023689B0707D5002504F11909E368039AFC
:1037A0009B1A9D4205DBE068039B9842B8BF184610
:1037B00093E701234A4639463046C04701308AD054
:1037C0000135EBE7002BA7D10B7884F8423004F1E8
:1037D000420565E73A45000829450008F8B50E4658
:1037E0001446054618B183690BB900F0B1F9214BB5
:1037F0009C422AD16C68A369A360A3891A072ED5BD
:10380000236963B323692068C01A6369F6B29842DA
:10381000374604DB2146284600F030F928BBA36870
:10382000013BA36023685A1C22601E70636901304B
:10383000984204D0A389DB0719D50A2E17D1214657
:10384000284600F01BF990B10FE00B4B9C4201D1D0
:10385000AC68D0E7094B9C4208BFEC68CBE7214637
:10386000284600F00DF80028CCD04FF0FF3738463E
:10387000F8BD00BF6C4500088C4500084C450008A9
:10388000324B70B51D6806460C4625B1AB6913B9BD
:10389000284600F05DF92E4B9C420FD16C68B4F9BC
:1038A0000C309AB215072CD4D00611D409223260FC
:1038B00043F04003A3814FF0FF3070BD254B9C4285
:1038C00001D1AC68EBE7244B9C4208BFEC68E6E70B
:1038D000510712D5616B41B104F14403994202D002
:1038E000304600F023FA00236363A38923F0240306
:1038F000A3810023636023692360A38943F0080345
:10390000A38123694BB9A38903F42073B3F5007F26
:1039100003D02146304600F0C9F9A28912F0010314
:103920000CD00023A36063695B42A361236953B990
:10393000B4F90C3013F08000BAD170BD920758BFB3
:103940006369A360F2E70020F7E700BF9000002062
:103950006C4500088C4500084C45000808B5062059
:1039600000F0C8FA012000F0DDFB00008A892DE993
:10397000F041054610070C465AD44B68002B05DC75
:103980000B6C002B02DC0020BDE8F081E66A002E03
:10399000F9D0002312F480522F682B6033D0606D71
:1039A000A3895A0705D56368C01A636B0BB1236CF2
:1039B000C01A00230246E66A216A2846B047431C23
:1039C000A38906D129681D294BD82B4ACA40D6079E
:1039D00047D500226260D9042269226004D5421CC6
:1039E00001D12B6803B96065616B2F600029CAD0D3
:1039F00004F14403994202D0284600F097F90020D0
:103A00006063BDE8F081216A01232846B047411C6C
:103A1000C6D12B68002BC3D01D2B01D0162B01D192
:103A20002F60B0E7A38943F04003A381BDE8F08194
:103A30000F69002FA7D093070E6808BF4B690F606E
:103A400018BF0023A6EB07088B60B8F1000F9ADDC2
:103A500043463A46216AA66A2846B047002807DC52
:103A6000A38943F04003A3814FF0FF30BDE8F0810C
:103A70000744A8EB0008E8E70100402038B50B69CF
:103A800005460C46DBB118B183690BB900F060F84C
:103A90000C4B9C4209D16C68B4F90C307BB12146C7
:103AA0002846BDE83840FFF761BF074B9C4201D173
:103AB000AC68F1E7054B9C4208BFEC68ECE70020DE
:103AC00038BD00BF6C4500088C4500084C45000817
:103AD000014900F0A9B800BF7D3A0008002310B5E5
:103AE000044603604360836081814366C281036151
:103AF00043618361194608225C30FFF790FB054B58
:103B00006362054BA362054BE362054B24622363AA
:103B100010BD00BF2D3F00084F3F0008873F000841
:103B2000AB3F000870B54A1E682555430E4605F1A7
:103B3000740100F049F9044640B1002180E84200D8
:103B40000C30A06005F16802FFF769FB204670BDEC
:103B5000836910B5044633BB8364C3640365124BA9
:103B6000124A1B688262984204BF0123836100F0FD
:103B70001FF86060204600F01BF8A060204600F0AF
:103B800017F80022E06004216068FFF7A7FF012218
:103B90000921A068FFF7A2FF02221221E068FFF7C7
:103BA0009DFF0123A36110BD14450008D13A000810
:103BB000F8B51C4B1E68B369074613B93046FFF7CA
:103BC000C7FF4836B4687368013B03D5336833B127
:103BD0003668F7E7B4F90C506DB16834F4E70421A6
:103BE0003846FFF79FFF30600028F1D10C233B607F
:103BF00004462046F8BD4FF6FF73E3810123A381FD
:103C000065662560A560656025616561A56108221E
:103C1000294604F15C00FFF702FB6563A563A56418
:103C2000E564E6E7144500082DE9F8438046894637
:103C300000F14804002614B93046BDE8F883A568B1
:103C40006768013F01D52468F5E7AB89012B07D9E7
:103C5000B5F90E30013303D029464046C847064324
:103C60006835EEE770B50E46B1F90E10002990B038
:103C700014461D4607DA00232B60B3891A0610D4B8
:103C80004FF480630EE001AA00F0B6F90028F2DBE1
:103C9000029A02F47042A2F500535A425A412A6035
:103CA000EEE740230020236010B070BD8B8973B510
:103CB0009D0706460C4607D504F1470323602361A0
:103CC0000123636102B070BD01AB6A46FFF7CAFF12
:103CD00000990546304600F077F848B9B4F90C3041
:103CE0009A05EFD423F0030343F00203A381E3E733
:103CF0000D4BB362A389206043F08003A381009B36
:103D00006361019B20615BB1B4F90E10304600F095
:103D100085F928B1A38923F0030343F00103A381AC
:103D2000A3891D43A581CDE7D13A000838B50546E2
:103D3000002945D051F8043C0C1F002BB8BFE418F3
:103D400000F08EF91F4A1368104633B9636014609F
:103D50002846BDE8384000F084B9A3420CD9216858
:103D60006218934204BF1A685B68636004BF52180C
:103D700022600460ECE713465A680AB1A242FAD9FD
:103D800019685818A0420BD1206801445818824283
:103D90001960DDD1106852685A6001441960D7E794
:103DA00002D90C232B60D3E7206821188A4204BF74
:103DB00011685268626004BF091821605C60C7E73F
:103DC00038BD00BFC03E002070B5CD1C25F00305F6
:103DD00008350C2D38BF0C25002D064601DBA94205
:103DE00003D90C233360002070BD00F039F9234A59
:103DF0001468214691B9224C23681BB9304600F063
:103E000041F820602946304600F03CF8431C26D19A
:103E10000C233360304600F024F9E4E70B685B1BA9
:103E20001AD40B2B0FD90B60CD50CC18304600F0B4
:103E300018F904F10B00231D20F00700C31A1BD052
:103E40005A42E25070BD8C420DBF63684B6863609C
:103E5000136018BF0C46E9E70C464968CAE7C41C62
:103E600024F00304A04205D0211A304600F00AF8DD
:103E70000130CDD02560D9E770BD00BFC03E002025
:103E8000C43E002038B5064C002305460846236092
:103E900000F032F9431C02D1236803B12B6038BD16
:103EA000A04000201F2938B504460D4604D916232A
:103EB00003604FF0FF3038BD426C12B152F8213030
:103EC0004BB9204600F030F82A4601462046BDE8AE
:103ED000384000F017B8012B0AD0591C03D1162323
:103EE0000360012038BD002442F825402846984749
:103EF000002038BD024B01461868FFF7D3BF00BF52
:103F00009000002038B5074C0023054608461146AE
:103F1000236000F0D9F8431C02D1236803B12B6061
:103F200038BD00BFA040002000F0BEB810B50C4660
:103F3000B1F90E1000F096F80028ABBF636DA389AD
:103F40001B1823F48053ACBF6365A38110BD2DE91A
:103F5000F0411F468B89DB0505460C46164605D504
:103F600002230022B1F90E1000F068F8A389B4F919
:103F70000E1023F48053A38132463B462846BDE809
:103F8000F04100F017B810B50C46B1F90E1000F072
:103F900055F8431CA38915BF606523F4805343F48F
:103FA0008053A38118BFA38110BDB1F90E1000F09A
:103FB00013B8000038B5074C0546084611460022E4
:103FC00022601A4600F0A6F8431C02D1236803B110
:103FD0002B6038BDA040002038B5064C00230546B4
:103FE0000846236000F050F8431C02D1236803B157
:103FF0002B6038BDA040002038B5074C0023054693
:1040000008461146236000F047F8431C02D123689C
:1040100003B12B6038BD00BFA040002038B5064C6E
:10402000002305460846236000F046F8431C02D1F1
:10403000236803B12B6038BDA040002038B5074C81
:10404000054608461146002222601A4600F044F850
:10405000431C02D1236803B12B6038BDA04000206F
:104060007047704738B5074C054608461146002290
:1040700022601A4600F038F8431C02D1236803B1CD
:104080002B6038BDA0400020024B58221A604FF030
:10409000FF307047A0400020024B58221A604FF0BA
:1040A000FF307047A0400020024B58221A604FF0AA
:1040B000FF307047A0400020024B58221A600020B9
:1040C000704700BFA0400020024B58221A604FF0FA
:1040D000FF307047A0400020024B58221A604FF07A
:1040E000FF307047A0400020024B58221A604FF06A
:1040F000FF307047A0400020044B1968024609B900
:1041000003491960186802441A607047C83E0020CD
:10411000A4400020024B58221A604FF0FF30704735
:10412000A0400020FEE70000F8B500BFF8BC08BCC6
:104130009E467047F8B500BFF8BC08BC9E46704765
:10414000A3440008FD2D000800000000000000004E
:1041500080000000B1440008B12A000800000000FF
:1041600000000000800000000002040404040406B3
:1041700000C1814001C0804101C0804100C1814037
:1041800001C0804100C1814000C1814001C0804127
:1041900001C0804100C1814000C1814001C0804117
:1041A00000C1814001C0804101C0804100C1814007
:1041B00001C0804100C1814000C1814001C08041F7
:1041C00000C1814001C0804101C0804100C18140E7
:1041D00000C1814001C0804101C0804100C18140D7
:1041E00001C0804100C1814000C1814001C08041C7
:1041F00001C0804100C1814000C1814001C08041B7
:1042000000C1814001C0804101C0804100C18140A6
:1042100000C1814001C0804101C0804100C1814096
:1042200001C0804100C1814000C1814001C0804186
:1042300000C1814001C0804101C0804100C1814076
:1042400001C0804100C1814000C1814001C0804166
:1042500001C0804100C1814000C1814001C0804156
:1042600000C1814001C0804101C0804100C1814046
:1042700000C0C101C30302C2C60607C705C5C40406
:10428000CC0C0DCD0FCFCE0E0ACACB0BC90908C876
:10429000D81819D91BDBDA1A1EDEDF1FDD1D1CDC66
:1042A00014D4D515D71716D6D21213D311D1D010D6
:1042B000F03031F133F3F23236F6F737F53534F4C6
:1042C0003CFCFD3DFF3F3EFEFA3A3BFB39F9F83836
:1042D00028E8E929EB2B2AEAEE2E2FEF2DEDEC2C26
:1042E000E42425E527E7E62622E2E323E12120E096
:1042F000A06061A163A3A26266A6A767A56564A486
:104300006CACAD6DAF6F6EAEAA6A6BAB69A9A868F5
:1043100078B8B979BB7B7ABABE7E7FBF7DBDBC7CE5
:10432000B47475B577B7B67672B2B373B17170B055
:104330005090915193535292965657975595945445
:104340009C5C5D9D5F9F9E5E5A9A9B5B99595898B5
:10435000884849894B8B8A4A4E8E8F4F8D4D4C8CA5
:104360004484854587474686824243834181804015
:10437000654D425254555265636569766500784DC6
:10438000425254555265636569766546534D0078CF
:104390004D425254555472616E736D697446534D5B
:1043A00000784D4252545554696D65725433354509
:1043B00078706972656400757352637642756666DB
:1043C0006572506F73203C204D425F5345525F50E1
:1043D00044555F53495A455F4D4158002E2E2F4D8D
:1043E0006964646C6577617265732F54686972647F
:1043F0005F50617274792F6D6F646275732F727480
:10440000752F6D627274752E630065536E645374FC
:10441000617465203D3D2053544154455F54585FBD
:1044200049444C4500282065526376537461746595
:10443000203D3D2053544154455F52585F494E49F9
:10444000542029207C7C2028206552637653746197
:104450007465203D3D2053544154455F52585F528E
:1044600043562029207C7C20282065526376537493
:10447000617465203D3D2053544154455F52585F5F
:104480004552524F5220290065526376537461742D
:1044900065203D3D2053544154455F52585F494487
:1044A0004C45004D6F646275735254555461736B83
:1044B0000064656661756C745461736B0000000084
:1044C00000000000000102030406070809000000C4
:1044D00000010203042C2066756E6374696F6E3AE6
:1044E0002000617373657274696F6E2022257322D8
:1044F000206661696C65643A2066696C65202225D6
:1045000073222C206C696E65202564257325730A3F
:104510000000000094000020232D302B2000686C48
:104520004C006566674546470030313233343536D6
:10453000373839414243444546003031323334350F
:104540003637383961626364656600000000000038
:10455000000000000000000000000000000000005B
:10456000000000000000000000000000000000004B
:10457000000000000000000000000000000000003B
:10458000000000000000000000000000000000002B
:10459000000000000000000000000000000000001B
:0C45A0000000000000000000000000000F
:0845AC00F4BCFF7F01000000D8
:0445B400B501000845
:0445B8009101000865
:1045BC0001000000AAAAAAAA020000001100000033
:1045CC0091240008040000003924000803000000B6
:1045DC004523000810000000FB2200080600000024
:1045EC00CD220008170000009D23000801000000E8
:1045FC005521000805000000C12100080F00000033
:10460C000B220008020000006322000800000000DA
:10461C00000000000000000000000000000000008E
:10462C00000000000000000000000000000000007E
:10463C000000000000000000000000000024F40056
:10464C0094000020000000006C4500088C45000818
:10465C004C450008000000000000000000000000B5
:10466C00000000000000000000000000000000003E
:10467C00000000000000000000000000000000002E
:10468C00000000000000000000000000000000001E
:10469C00000000000000000000000000000000000E
:0446AC00000000000A
:040000050800310DB1
:00000001FF
